{
  "contractName": "AgreementMock",
  "abi": [
    {
      "constant": true,
      "inputs": [],
      "name": "getAgreementHash",
      "outputs": [
        {
          "internalType": "bytes32",
          "name": "",
          "type": "bytes32"
        }
      ],
      "payable": false,
      "stateMutability": "view",
      "type": "function"
    },
    {
      "constant": false,
      "inputs": [
        {
          "internalType": "bytes32",
          "name": "_agreementHash",
          "type": "bytes32"
        }
      ],
      "name": "setAgreementHashTest",
      "outputs": [],
      "payable": false,
      "stateMutability": "nonpayable",
      "type": "function"
    },
    {
      "constant": true,
      "inputs": [
        {
          "internalType": "bytes32",
          "name": "_agreementHash",
          "type": "bytes32"
        }
      ],
      "name": "test",
      "outputs": [
        {
          "internalType": "bool",
          "name": "",
          "type": "bool"
        }
      ],
      "payable": false,
      "stateMutability": "view",
      "type": "function"
    }
  ],
  "bytecode": "0x608060405234801561001057600080fd5b506101c5806100206000396000f3fe608060405234801561001057600080fd5b50600436106100415760003560e01c8063696da9211461004657806398d3642e14610060578063993723211461007f575b600080fd5b61004e6100b0565b60408051918252519081900360200190f35b61007d6004803603602081101561007657600080fd5b50356100b6565b005b61009c6004803603602081101561009557600080fd5b50356100c2565b604080519115158252519081900360200190f35b60005490565b6100bf8161010e565b50565b60008160005481146101055760405162461bcd60e51b81526004018080602001828103825260288152602001806101696028913960400191505060405180910390fd5b50600192915050565b60005415610163576040805162461bcd60e51b815260206004820152601b60248201527f43616e206e6f74207365742061677265656d656e742074776963650000000000604482015290519081900360640190fd5b60005556fe53656e646572206d7573742073656e64207468652072696768742061677265656d656e7448617368a265627a7a7231582098599ef375469b7a01e1bcc25ec12e3aaa9e46581f3a80d1cbd7bc4611f868d864736f6c634300050d0032",
  "source": "pragma solidity 0.5.13;\n\nimport \"../schemes/Agreement.sol\";\n\n\ncontract AgreementMock is Agreement {\n\n    function setAgreementHashTest(bytes32 _agreementHash) public\n    {\n        super.setAgreementHash(_agreementHash);\n    }\n\n    function test(bytes32 _agreementHash) public onlyAgree(_agreementHash) view returns(bool)\n    {\n        return true;\n    }\n}\n",
  "sourcePath": "/Users/oren/daostack/arc/contracts/test/AgreementMock.sol",
  "compiler": {
    "name": "solc",
    "version": "0.5.13+commit.5b0b510c.Emscripten.clang"
  },
  "schemaVersion": "3.0.20",
  "updatedAt": "2020-02-10T15:44:06.143Z",
  "devdoc": {
    "methods": {
      "getAgreementHash()": {
        "details": "getAgreementHash",
        "return": "bytes32 agreementHash"
      }
    }
  },
  "userdoc": {
    "methods": {}
  }
}